:100000006F60C033130000001300000013000000F5
:100010001300000013000000130000001300000094
:100020001300000013000000130000001300000084
:08003000130000007300100032
:100038000000000000000000EA610000FA61000012
:1000480000000000826200000000000000000000C4
:1000580084620000866200000000000000000000CA
:1000680088620000000000008A62000000000000B2
:100078008C6200008E6200009062000092620000B4
:100088009462000096620000B454000068550000B5
:100098001C560000D056000084570000A2620000E1
:1000A800A4620000A6620000A8620000AA62000024
:1000B800AC620000AE620000B0620000B2620000F4
:1000C800B4620000B6620000B86200003858000050
:1000D800BC620000825A0000C0620000C2620000D8
:1000E800425B0000FA5B0000BA5C0000CA620000D4
:1000F800CC620000CE620000D0620000D262000034
:10010800D4620000C04D0000844E0000484F00003B
:1001180050590000DE620000E0620000E262000068
:10012800B25F0000E6620000E8620000EA620000D8
:10013800EC620000EE6200007A5D0000F2620000EE
:1001480010500000D45000003A5E0000F25E00003B
:10015800FC620000FE620000006300000263000011
:100168000463000006630000086300000A630000DF
:100178000C6300000E63000010630000488200005A
:100188001463000016630000E45300009651000059
:100198005A520000245300002063000072600000DF
:1001A8002463000026630000286300003261000019
:1001B8002C6300002E6300003063000032630000EF
:1001C8003463000036630000386300003A630000BF
:1001D8000000000000000000000000000000000017
:1001E8000000000000000000000000000000000007
:0801F8000000000000000000FF
:100200003D432A876373C3029377F700BDEFADE5E3
:10021000937606FF3D8ABA960CC34CC30CC74CC7F5
:100220004107E36BD7FE11E28280B306C3408A0622
:100230009702000096966780A6002307B700A306E2
:10024000B7002306B700A305B7002305B700A30432
:10025000B7002304B700A303B7002303B700A3022A
:10026000B7002302B700A301B7002301B700A30022
:10027000B7002300B700828093F5F50F93968500B1
:10028000D58D93960501D58D61B79396270097027A
:10029000000096968682E78086FA9680C1171D8FA9
:1002A0003E96E374C3F8A5B7011122CE00102326B1
:1002B000A4FE37F500E08328450037F500E093F809
:1002C000E8FF2322150183A801820965130505F4BF
:1002D00033D5A802AA8601470325C4FEAA87014890
:1002E00037F500E03303F702B308D8029A98338356
:1002F000F60233B6F6029A85B387C8003E860CC96B
:1003000050C9B7F700E09843B7F700E0136707015B
:1003100098C3B7F700E09843B7F700E013671702F8
:1003200098C30100B7F700E0DC4313F717008547D7
:10033000E31AF7FEB7F700E09843B7F700E0799BC0
:1003400098C30100724405618280797106D622D477
:100350000018232EA4FC231704FE231604FE0327F3
:10036000C4FDA54763E0E70C8327C4FD139727006E
:10037000BD679387876BBA979C438287B7370140E5
:10038000938707C083D74702C207C1832317F4FEB0
:1003900069A8B707004083D74702C207C183231764
:1003A000F4FE61A0B70700409387074083D7470258
:1003B000C207C1832317F4FE8DA8B71700409387A7
:1003C000078083D74702C207C1832317F4FEB1A871
:1003D000B7170040938707C083D74702C207C1837E
:1003E0002317F4FE99A0B73701409387074083D7BE
:1003F0004702C207C1832317F4FE05A8B75701407F
:10040000938707C083D74702C207C1832317F4FE2F
:1004100029A8B757014083D74702C207C1832317D2
:10042000F4FE21A0231704FE0100B7070020138764
:1004300007048327C4FDBA9783C7070013F7F70F94
:100440009307F00F6317F7008357E4FE2316F4FEBB
:100450002DA8B7070020138707048327C4FDBA9788
:1004600083C7070093F7F70F3E85792EAA8791EB94
:100470008357E4FEB307F040C207C1832316F4FE9E
:1004800029A08357E4FE2316F4FE8317C4FE3E859D
:10049000B250225445618280011122CE00102326E1
:1004A000A4FE0327C4FEA54763E0E7088327C4FE34
:1004B00013972700BD679387076EBA979C4382877F
:1004C000B7370140938707C023920702B9A8B7073F
:1004D00000402392070291A8B70700409387074086
:1004E0002392070299A0B7170040938707802392B1
:1004F000070225A8B7170040938707C02392070279
:100500002DA0B7370140938707402392070231A8F7
:10051000B7570140938707C02392070239A0B75706
:1005200001402392070211A00100010072440561FD
:100530008280397106DE22DC80002326A4FC23247D
:10054000B4FC2322C4FC232604FE91450325C4FCED
:10055000EF00105AAA873E871306D007BD67938520
:10056000C71E3A85EF302006832784FCB18303271A
:10057000C4FCB307F74093B7170093F7F70F3E8714
:100580001306E007BD679385C71E3A85EF30A003C9
:10059000832744FCB1830327C4FCB307F74093B718
:1005A000170093F7F70F3E871306F007BD67938593
:1005B000C71E3A85EF3020010325C4FCEF00B05977
:1005C000832784FC93F7F70F930680040146814547
:1005D0003E85A52C832744FC93F7F70F93068004F0
:1005E000014681453E8595240327C4FCA54763E069
:1005F000E7088327C4FC13972700BD67938787709C
:10060000BA979C438287B7370140938707C023245A
:10061000F4FE8DA0B70700402324F4FEA1A8B7077D
:100620000040938707402324F4FEA9A0B717004099
:10063000938707802324F4FE35A8B71700409387DB
:1006400007C02324F4FE3DA0B7370140938707403D
:100650002324F4FE05A0B7570140938707C0232445
:10066000F4FE09A8B75701402324F4FE21A08547D2
:100670002326F4FE832784FC13D787008D47631A53
:10068000F7008545B70716001385070CEF60E000FB
:10069000E5A8832784FC13D78700C547631AF700B2
:1006A0008545B707180013850710EF50107FE9A89C
:1006B000832784FC13D7870093072002631AF7006F
:1006C0008545B7171A0013850780EF50107D6DA878
:1006D000832784FC13D7870093073002631AF7003F
:1006E0008545B7171A00138507C0EF50107B69A81E
:1006F000832784FC13D78700930710036317F70041
:1007000085450565EF50707941A0832784FC13D798
:10071000870093071007631AF7008545B707008025
:1007200013854700EF50707785A0832784FC13D78B
:10073000870093073008631AF7008545B7071380D1
:1007400013850701EF50707581A0832784FC13D7B0
:10075000870093071009631AF7008545B7071580CE
:1007600013850702EF50707305A0832784FC13D70D
:100770008700930730096319F7008545B70715808F
:1007800013850704EF5070718327C4FEADEB8545D8
:100790000545EF606039232E04FC232004FE23125C
:1007A00004FE9307C4FD3E85EF60F06A231E04FC3F
:1007B000FD572310F4FE231104FE231F04FC230223
:1007C00004FE9307C4FDBE85032584FEEF60C0636D
:1007D00093050006032584FEEF60307785450325E9
:1007E00084FEEF60106B814601468945032584FE37
:1007F000EF60F07E8545032584FEEF60906901007F
:10080000F250625421618280011122CE0010232611
:10081000A4FE8327C4FE958313F77700B707002053
:100820000A079387C704BA979C439C470327C4FED3
:100830007D8B85463397E600F98FB337F00093F749
:10084000F70F3E85724405618280797106D622D405
:100850000018232EA4FC232CB4FCB2872328D4FC3C
:10086000A30BF4FC232004FE232204FE232404FE15
:100870008327C4FD958393F7F70F9D8BA307F4FEA1
:100880008327C4FD93F7F70FFD8B2307F4FE8347FF
:10089000F4FE91E785451145EF60002991A80347D3
:1008A000F4FE85476317F70085452145EF60C027B3
:1008B00081A00347F4FE89476317F700854541454A
:1008C000EF60802635A00347F4FE8D476318F700DC
:1008D000854513050002EF60202519A80347F4FEA3
:1008E00091476317F700854513050004EF60C023A7
:1008F0008347E4FE0547B317F700C207C1832310FF
:10090000F4FE032784FD85476317F702832704FD60
:10091000C207C183A183C207C18389E78D47232210
:10092000F4FE11A8832704FDC207C183A183C20777
:10093000C1832322F4FE832704FDC207C18393F7FA
:10094000F70F2324F4FE0347F4FEB70700200A073D
:100950009387C704BA979C43130704FEBA853E8564
:10096000EF50902D032784FD85476319F702034755
:10097000F4FEB70700200A079387C704BA97944389
:100980008347E4FE0547B317F700C207C183034757
:1009900074FD3A86BE853685EF50B04C0100B250EA
:1009A000225445618280797106D622D40018232E04
:1009B000A4FC232CB4FC032784FD8967938717715B
:1009C000B337F70093F7F70F3E8713065003BD6761
:1009D000938507253A85EF20103FB737014093876D
:1009E00007C02326F4FE8327C4FDC183BD8B2547A2
:1009F000636EF70613972700BD6793870773BA974F
:100A00009C438287B7370140938707C02326F4FEB3
:100A1000B1A8B70700402326F4FE89A8B707004015
:100A2000938707402326F4FE91A0B71700409387D1
:100A300007802326F4FE1DA8B7170040938707C040
:100A40002326F4FE25A0B7370140938707402326CD
:100A5000F4FE29A8B7570140938707C02326F4FE68
:100A600031A0B75701402326F4FE01008327C4FEBE
:100A700083D7C7022315F4FE0357A4FE832784FD02
:100A80003307F702896793870771B357F702231477
:100A9000F4FE8327C4FDA1838D8B81EB8327C4FEE5
:100AA000035784FE239AE702A9A88327C4FDA183E4
:100AB00013F7370085476319F7008327C4FE0357F0
:100AC00084FE239CE70235A88327C4FDA18313F786
:100AD000370089476319F7008327C4FE035784FE54
:100AE000239EE70239A88327C4FDA18313F73700AB
:100AF0008D476318F7008327C4FE035784FE2390B5
:100B0000E7040100B2502254456182805D7186C6BF
:100B1000A2C48008232EA4FA232CB4FA232AC4FAF0
:100B20008327C4FBC1838D453E85EF00607CAA8787
:100B30003E871306E00ABD67938507253A85EF20B7
:100B40009028032744FB896793871771B337F70011
:100B500093F7F70F3E871306000BBD6793850725B4
:100B60003A85EF205026232E04FC232004FE231276
:100B700004FE232604FC232804FC232A04FC232C43
:100B800004FC231504FE8327C4FBC183BD8B3E8573
:100B9000EF00607C8327C4FB93F7F70F9306803147
:100BA000014685453E85553185450545EF50D07751
:100BB000B7370140938707C02326F4FE8327C4FB81
:100BC000C183BD8B2547636EF70613972700BD676A
:100BD00093878775BA979C438287B737014093877D
:100BE00007C02326F4FEB1A8B70700402326F4FE71
:100BF00089A8B7070040938707402326F4FE91A0F9
:100C0000B7170040938707802326F4FE1DA8B71767
:100C10000040938707C02326F4FE25A0B737014084
:100C2000938707402326F4FE29A8B75701409387EE
:100C300007C02326F4FE31A0B75701402326F4FE57
:100C400001008327C4FB13D7C7008D47631AF70041
:100C50008545B70716001385070CEF50102415AA19
:100C60008327C4FB13D7C700C547631AF700854520
:100C7000B707180013850710EF50302219AA8327F1
:100C8000C4FB13D7C700C947631AF7008545B707E8
:100C9000180013850720EF505020E5A88327C4FBD8
:100CA00013D7C700CD47631AF7008545B70718006B
:100CB00013850730EF50701EE9A88327C4FB13D7B4
:100CC000C70093072002631AF7008545B7171A007B
:100CD00013850780EF50701C6DA88327C4FB13D7C2
:100CE000C70093073002631AF7008545B7171A004B
:100CF000138507C0EF50701A69A88327C4FB13D768
:100D0000C700930710036317F70085450565EF508B
:100D1000D01841A08327C4FB13D7C700930710073F
:100D2000631AF7008545B707008013854700EF5029
:100D3000D01685A08327C4FB13D7C70093073008BC
:100D4000631AF7008545B707138013850701EF5035
:100D5000D01481A08327C4FB13D7C70093071009C1
:100D6000631AF7008545B707158013850702EF5012
:100D7000D01205A08327C4FB13D7C70093073009FF
:100D80006319F7008545B707158013850704EF50F1
:100D9000D01003A70182832784FBB357F702C183D6
:100DA0002315F4FE03A701828357A4FE8507BE86A0
:100DB000832784FBB387F602B357F7022314F4FEAC
:100DC000035784FE832744FB3307F7028967938721
:100DD0000771B357F7022313F4FE835784FEFD1700
:100DE000C207C1832310F4FE8357A4FE231EF4FC24
:100DF000231104FE231F04FC230204FE9307C4FDF9
:100E0000BE850325C4FEEF6020009307000723166C
:100E1000F4FC85472317F4FC231804FC835764FE75
:100E20002319F4FC8947231AF4FC8947231BF4FC9B
:100E3000231C04FC231D04FC8327C4FBA1838D8B8E
:100E40009DE39307C4FCBE850325C4FEEF60A01399
:100E5000A1450325C4FEEF60102691450325C4FE7D
:100E6000EF60303A45A08327C4FBA18313F7370016
:100E700085476315F7029307C4FCBE850325C4FEAE
:100E8000EF60202AA1450325C4FEEF60902793055B
:100E900000400325C4FEEF60903BADA08327C4FB58
:100EA000A18313F7370089476314F7029307C4FC43
:100EB000BE850325C4FEEF60E044A1450325C4FEC2
:100EC000EF60D02991450325C4FEEF60B03D1DA819
:100ED0008327C4FBA18313F737008D476314F70200
:100EE0009307C4FCBE850325C4FEEF60605FA14587
:100EF0000325C4FEEF60502B930500400325C4FE7C
:100F0000EF60103F85450325C4FEEF60007E8545F8
:100F10000325C4FEEF60E0770100B640264461611E
:100F20008280011122CE00102326A4FEAE87A305E5
:100F3000F4FEBD670327C4FE0A0793870778BA97B4
:100F40009C433E878347B4FEC207C1832316F70044
:100F50000100BD670327C4FE0A0793870778BA9785
:100F60009C4383D78700C207C18393F70708F5F333
:100F70000100724405618280011122CE00102326F7
:100F8000A4FEAE872315F4FE8357A4FEA183C207F7
:100F9000C18393F6F70FBD670327C4FE0A07938743
:100FA0000778BA979C433E8793970601C18323161F
:100FB000F7000100BD670327C4FE0A07938707787F
:100FC000BA979C4383D78700C207C183898BFDD31F
:100FD0008357A4FE93F6F70FBD670327C4FE0A07E5
:100FE00093870778BA979C433E8793970601C183FE
:100FF0002316F7000100BD670327C4FE0A07938785
:101000000778BA979C4383D78700C207C18393F7B9
:101010000708F5F301007244056182805D7186C6A0
:10102000A2C480082326A4FC2324B4FC2322C4FCED
:101030002320D4FC232EE4FA232CF4FA232A04FBE5
:10104000BD670327C4FC0A0793870778BA979C43B8
:101050003E85EF50F03E85450545EF50F02C0327C7
:1010600004FC93073012631DF7000327C4FB9307AA
:1010700050126317F70085450545EF50006225A023
:10108000032704FC89679387A714631EF7000327CF
:10109000C4FB89679387C7146317F7008545371525
:1010A0002000EF50805F8327C4FC91E785450565EC
:1010B000EF50902725A00327C4FC85476317F7004E
:1010C00085451165EF50B02A11A80327C4FC894754
:1010D0006316F70085452165EF507029832704FCCE
:1010E00093F7F70F93068031054685453E85EFF06F
:1010F000CFF58327C4FB93F7F70F9306803105469E
:1011000085453E85EFF06FF4032784FBC167F9172F
:10111000630DF700832784FB93F7F70F9306803462
:10112000054681453E85EFF04FF2032744FB9307C8
:10113000F00F630DF700832744FB93F7F70F930637
:101140000031014685453E85EFF02FF0232E04FC4B
:10115000232004FE232204FE232404FE231604FE7F
:10116000231E04FC93074010231FF4FC231004FEED
:10117000032784FC85476305F702832784FC81CF1E
:10118000032784FC89476303F702032784FC8D4708
:101190006304F7020DA8231104FE231204FE25A008
:1011A000231104FE85472312F4FE31A88947231139
:1011B000F4FE231204FE01A889472311F4FE85479B
:1011C0002312F4FE0100231704FE03A701828327E4
:1011D00044FCB357F7022317F4FE03A701828327C9
:1011E00044FCB377F70291E78357E4FEFD1723171A
:1011F000F4FE0357E4FE9307F00763F7E700930755
:1012000080032317F4FE49A80357E4FE9307F00375
:1012100063F7E700930700032317F4FEB5A803570D
:10122000E4FEFD4763F7E700930780022317F4FE0F
:10123000A5A00357E4FEBD4763F7E700930700024C
:101240002317F4FE91A80357E4FE9D4763F6E700D9
:10125000E1472317F4FE89A00357E4FE8D4763F6A8
:10126000E700C1472317F4FE05A80357E4FE8547AE
:1012700063F6E700A1472317F4FE39A88357E4FE7D
:1012800081C7231704FE09A813068022BD67938532
:10129000072B0145EF2020338357E4FE2314F4FE8F
:1012A000930700202313F4FE231504FE231604FEE7
:1012B000BD670327C4FC0A0793870778BA979C4346
:1012C0003E879307C4FDBE853A85EF50D01EBD67AB
:1012D0000327C4FC0A0793870778BA979C43854580
:1012E0003E85EF50D02C0100B640264461618280DB
:1012F000797122D60018232EA4FC232CB4FC854738
:10130000A307F4FE0327C4FD0A079387C18BBA978E
:101310009C4399EB0327C4FD0A079387C18BBA97B7
:10132000032784FD98C315A00327C4FD0A079387EC
:10133000C18BBA979C43032784FD6316F70085474A
:10134000A307F4FE19A0A30704FE8347F4FE3E851D
:10135000325445618280011106CE22CC0010232632
:10136000A4FE8327C4FE81EB85458567138507802E
:10137000EF50807B6DA80327C4FE85476317F700F5
:1013800085450545EF50A07E5DA00327C4FE894733
:101390006317F70085450945EF50607D49A803278D
:1013A000C4FE8D476317F70085451145EF50207C3B
:1013B000BDA80327C4FE91476317F7008545214563
:1013C000EF50E07AADA00327C4FE95476317F700FE
:1013D00085454145EF50A07999A80327C4FE994758
:1013E0006318F700854513050002EF50407881A08F
:1013F0000327C4FE9D476317F70085450965EF5035
:10140000A07235A00327C4FEA1476318F7008545E5
:1014100037050800EF50407119A80327C4FEA547FF
:101420006317F700854537051000EF50E06F0100A6
:10143000F240624405618280797122D60018232E21
:10144000A4FCB7370140938707C02326F4FE231579
:1014500004FE0327C4FDA54763ECE7088327C4FD0A
:1014600013972700BD679387C778BA979C438287F5
:10147000B7370140938707C02326F4FE95A8B70726
:1014800000402326F4FEADA0B70700409387074035
:101490002326F4FEB1A8B7170040938707802326C0
:1014A000F4FEB9A0B7170040938707C02326F4FEC7
:1014B00081A0B71700402326F4FE1DA8B7170040EF
:1014C000938707402326F4FE25A0B7370140938772
:1014D00007402326F4FE29A8B7570140938707C089
:1014E0002326F4FE31A0B75701402326F4FE010065
:1014F0000327C4FD0A079387418EBA97984389470B
:10150000631FF7008327C4FE83D7470213970701A1
:1015100041838D47B357F7022315F4FE39A0832783
:10152000C4FE83D747022315F4FE8357A4FE3E85ED
:10153000325445618280797122D60018232EA4FC92
:10154000B7370140938707C02326F4FE0327C4FD65
:10155000A54763ECE7088327C4FD13972700BD6701
:101560009387477BBA979C438287B737014093871D
:1015700007C02326F4FE95A8B70700402326F4FEF3
:10158000ADA0B7070040938707402326F4FEB1A81B
:10159000B7170040938707802326F4FEB9A0B7173A
:1015A0000040938707C02326F4FE81A0B7170040B0
:1015B0002326F4FE1DA8B717004093870740232673
:1015C000F4FE25A0B7370140938707402326F4FE99
:1015D00029A8B7570140938707C02326F4FE31A0FE
:1015E000B75701402326F4FE01008327C4FE23924F
:1015F00007020100325445618280011122CE0010A1
:101600002326A4FEAE87A305F4FE0100BD670327D1
:10161000C4FE0A079387C77DBA979C4383D7070008
:10162000C207C18393F70708F5D3BD670327C4FE3C
:101630000A079387C77DBA979C433E878347B4FECA
:10164000C207C1832312F700010072440561828042
:10165000011106CE22CC00102326A4FE2324B4FEC2
:10166000832784FEB337F00093F7F70F3E87130606
:101670000005BD67938507313A85EF10D07439A80E
:10168000832784FE138717002324E4FE8387070043
:1016900093F7F70FBE850325C4FE8537832784FEA5
:1016A00083870700F1FF0100F240624405618280F8
:1016B000011106CE22CC00102326A4FEAE87A3057E
:1016C000F4FEBD670327C4FE0A079387C77DBA9758
:1016D0009C433E878347B4FE3E86930550523A852D
:1016E000EF6080791387C1838327C4FEBA9783C7CD
:1016F000070081453E85EF30A0628347B4FE81CF6D
:101700001387C1838327C4FEBA9783C707003E852A
:10171000EF30405D19A81387C1838327C4FEBA97B1
:1017200083C707003E85EF30C05D0100F240624490
:1017300005618280011122CE00102326A4FE2324FD
:10174000B4FEBD670327C4FE0A079387C77DBA9717
:101750009C4383D70700C207C18393F707028DC755
:10176000BD670327C4FE0A079387C77DBA979C43CA
:1017700083D74700C207C18313F7F70F832784FE7F
:101780002380E700854711A081473E8572440561AB
:101790008280797106D622D40018232EA4FC232C33
:1017A000B4FC232AC4FC2328D4FC032744FD83274C
:1017B00004FD3D8F8327C4FDB207F98F93B717004F
:1017C00093F7F70F3E871306A00ABD67938507318D
:1017D0003A85EF10505F832744FD13D78700832796
:1017E00004FDA183B307F74093B7170093F7F70FF2
:1017F0003E871306B00ABD67938507313A85EF101F
:10180000905C832744FD93F7F70FE1460146854539
:101810003E85EFF08F83832704FD93F7F70F930640
:101820008004014681453E85EFF02F8285450545C0
:10183000EF50802F032744FDC167FD17F98F0D6717
:10184000130707386387E7200D67130707386369B5
:10185000F7040567130757166381E7160567130733
:101860005716636FF7001307F022638AE70C13071C
:1018700060306381E710130760126388E70865A68C
:10188000096713078736638BE7160D67130707127F
:101890006387E71809671307A7146380E71461A635
:1018A00015671307A738638EE72615671307A73850
:1018B0006362F7021167130787386380E7201567B3
:1018C000130787126385E722116713074712638C9A
:1018D000E71A91AE19671307C7386388E72A1967B3
:1018E0001307C7386368F700196713076710638425
:1018F000E72615AE1D671307E7106382E72C1D6707
:101900001307E7386387E72E39AEB7070140D44F96
:10191000B7070140370700FC7D17758FD8CFB70791
:101920000140D843B70701406D9BD8C3B7070140BA
:10193000D843B707014013674700D8C3EDA4B707E2
:101940000140D44FB7070140370700FC7D17758F62
:10195000D8CFB7070140D44FB7070140370700047D
:10196000558FD8CFB7070140D843B70701406D9BCB
:10197000D8C355ACB7070140D44FB707014037076C
:1019800000FC7D17758FD8CFB7070140D44FB7073C
:10199000014037070004558FD8CFB7070140D8431F
:1019A000B70701406D9BD8C3B7070140D843B707BD
:1019B000014013674700D8C3BDA4B7070140D8430F
:1019C000B70701405D9BD8C3B7070140D843B707AD
:1019D000014013678700D8C3B9A4B7070140D843B3
:1019E000B70701401377F7FCD8C3B7070140D843C6
:1019F000B707014013670701D8C335A4B7070140F3
:101A0000D843B70701401377F7FCD8C3B7070140A5
:101A1000D843B707014013670703D8C329A4B70702
:101A20000140D44FB70701403707FDFF7D17758F81
:101A3000D8CFB7070140D44F832744FDA183139724
:101A40000701B70703007D8FB7070140558FD8CF37
:101A5000D9AAB7070140D44FB70701403707FDFFA8
:101A60007D17758FD8CFB7070140D44F832744FD2A
:101A7000A18313970701B70703007D8FB7070140C4
:101A8000558FD8CF4DA2B7070140D44FB7070140BB
:101A90003707F4FF7D17758FD8CFB7070140D44FB4
:101AA000832744FDA18313972701B7070C007D8F7F
:101AB000B7070140558FD8CFBDA2B7070140D44F1B
:101AC000B70701403707F4FF7D17758FD8CFB707E9
:101AD0000140D44F832744FDA18313972701B70703
:101AE0000C007D8FB7070140558FD8CF2DAAB707BF
:101AF0000140D44FB70701403707D0FF7D17758FDE
:101B0000D8CFB7070140D44F832744FDA183139753
:101B10004701B70730007D8FB7070140558FD8CFF9
:101B200019A2B7070140D44FB70701403707D0FFCC
:101B30007D17758FD8CFB7070140D44F832744FD59
:101B4000A18313974701B70730007D8FB707014086
:101B5000558FD8CFC9A8B7070140D44FB707014068
:101B6000370740FF7D17758FD8CFB7070140D44F97
:101B7000832744FDA18313976701B707C0007D8FBA
:101B8000B7070140558FD8CF79A8B7070140D44F88
:101B9000B7070140370740FF7D17758FD8CFB707CC
:101BA0000140D44F832744FDA18313976701B707F2
:101BB000C0007D8FB7070140558FD8CFADA0B707C4
:101BC0000140D44FB7070140370700FD7D17758FDF
:101BD000D8CFB7070140D44F832744FDA183139783
:101BE0008701B70700037D8FB7070140558FD8CF16
:101BF0001DA8B7070140D44FB7070140370700FDC4
:101C00007D17758FD8CFB7070140D44F832744FD88
:101C1000A18313978701B70700037D8FB7070140A2
:101C2000558FD8CF01008327C4FD91E78545116505
:101C3000EF40906F69A80327C4FD85476318F7003C
:101C4000854537050200EF40907251A00327C4FD7F
:101C500089476318F700854537050400EF40307168
:101C6000BDA00327C4FD8D476318F70085453705E0
:101C70000800EF40D06FA1A80327C4FD9147631867
:101C8000F700854537051000EF40706E89A00327E7
:101C9000C4FD95476318F700854513050004EF4020
:101CA000106D35A00327C4FD99476318F7008545DB
:101CB00013050008EF40B06B19A80327C4FD9D472A
:101CC0006317F700854513050010EF40506A232085
:101CD00004FE232204FE232404FE232604FE83277D
:101CE00084FD2320F4FE231204FE231304FE231498
:101CF00004FE231604FEB1472315F4FEBD67032737
:101D0000C4FD0A079387C77DBA979C433E87930714
:101D100004FEBE853A85EF50F06CBD670327C4FD15
:101D20000A079387C77DBA979C4385453E85EF6038
:101D3000A00E0100B250225445618280411106C6B6
:101D400022C4000883A741850547638BE7006388A9
:101D5000070C0947638DE7000D47638FE702E9A091
:101D600083A701851387170023A8E18475A883A79B
:101D700001851387170023A8E18403A70185A547E0
:101D800063F1E70AB70700209387C7049C4B1167EC
:101D9000D8CB23A8018471A003A78185854763144C
:101DA000F7081305F008EFE03FA6AA87ADC3194571
:101DB000EFF08FE8AA873E8783A701851D8F9307E1
:101DC000600963F2E7061945EFF0EFF683A7018596
:101DD000D3F717D05385F720EF901050BD6703A6B7
:101DE000073783A64737EF809014AA872E883E8551
:101DF000C285EF903037AA87139707014183B70751
:101E000000202390E728094723ACE18429A819453D
:101E1000EFF08FE2AA873E8723A8E18429A0010082
:101E200021A0010011A001000100B24022444101A3
:101E30008280411106C622C4000883A74185094754
:101E4000637CF7000D47639AE7001945EFF0AFEEAA
:101E5000054723ACE18411A001000100B2402244F7
:101E600041018280011106CE22CC0010232204FE03
:101E700083C7D1856381071409A8930734FE0546FB
:101E8000BE851385C190EF10906B930734FEBE851D
:101E90001D45EFF03F8AAA87EDF3034734FEA947BB
:101EA000631BF71099472322F4FE130744FE9307A0
:101EB00084FE85463A86BE851385C190EF20C046D4
:101EC000930784FE138737000D46BD6793858737D8
:101ED0003A85EFA01026AA879DEB03A74186894784
:101EE0006304F70C054723A2E1861385C190EF1028
:101EF000705DAA872322F4FE930744FE81463E8646
:101F00009385819A1385C190EF20004271A89307B1
:101F100084FE138737000D46BD679385C7373A8522
:101F2000EFA03021AA879DEB03A701868947630DA7
:101F3000F706054723A0E1861385C190EF1090585E
:101F4000AA872322F4FE930744FE81463E869385AA
:101F500081921385C190EF20203DB9A0930784FEA4
:101F6000138737000D46BD67938507383A85EFA084
:101F7000501CAA8795EB03A7818689476306F70261
:101F8000054723A4E1861385C190EF10B053AA87BB
:101F90002322F4FE930744FE81463E86938581A268
:101FA0001385C190EF2040381385C190EF10F02CBD
:101FB0000547238EE1840100F2406244056182807E
:101FC000011106CE22CC0010AA87A307F4FEB707A2
:101FD00000209387C704DC4713070008D8CB83474A
:101FE000F4FEBE850545EFE0DFF3B70700209387D9
:101FF000C704DC471307000898CB0100F240624495
:1020000005618280011106CE22CC0010AA87368796
:102010002317F4FEAE872316F4FEB2872315F4FED1
:10202000BA872314F4FE83C7C180C207C183035754
:10203000E4FEB337F70093F7F70F3E871306A008C7
:10204000BD67938587463A85EF10E05783C7D180F7
:10205000C207C1830357C4FEB337F70093F7F70FE6
:102060003E871306B008BD67938587463A85EF1013
:10207000805583C7C180C207C1830357A4FEB3370D
:10208000F70093F7F70F3E871306C008BD679385E7
:1020900087463A85EF10205383C7D180C207C1839A
:1020A000035784FEB337F70093F7F70F3E87130605
:1020B000D008BD67938587463A85EF10C05083A747
:1020C000C18605476376F7000D476369F71061A085
:1020D0001305A002F53581450545EFE09FE48357E0
:1020E000E4FE93F7F70F890793F7F70FBE850545D1
:1020F000EFE03FE381450545EFE0BFE28357A4FEF3
:1021000093F7F70F890793F7F70FBE850545EFE0C3
:102110005FE11305B0026D3581450545EFE07FE0D5
:102120008357C4FE93F7F70F850793F7F70FBE8524
:102130000545EFE01FDF81450545EFE09FDE835752
:1021400084FE93F7F70F850793F7F70FBE850545D4
:10215000EFE03FDD61A01305A0029D3581450545F7
:10216000EFE03FDC8357E4FE93F7F70F850793F723
:10217000F70FBE850545EFE0DFDA81450545EFE065
:102180005FDA8357A4FE93F7F70F850793F7F70FEE
:10219000BE850545EFE0FFD81305B0021535814532
:1021A0000545EFE01FD88357C4FE93F7F70F890763
:1021B00093F7F70FBE850545EFE0BFD6814505458E
:1021C000EFE03FD6835784FE93F7F70F890793F725
:1021D000F70FBE850545EFE0DFD401001305C0020F
:1021E000C5330100F240624405618280797106D6F0
:1021F00022D400189307C4FD3E85EF104043854765
:10220000231EF4FC83C7C180C207C183231FF4FCD3
:1022100083C7D180C207C1832310F4FE83A78180C6
:102220000547638AE70099EF99472301F4FEA14728
:10223000A301F4FE09A8A1472301F4FEC147A301AD
:10224000F4FE11A00100B7270000938747652324FF
:10225000F4FEB7270000938727272326F4FE930771
:10226000C4FD3E85EF1040420100B250225445614A
:102270008280011106CE22CC001083C7C1803E8728
:1022800083C7D180B307F7022326F4FEB7070020E7
:102290009387C704DC474147D8CB83C7C180C207B7
:1022A000C183FD1713970701418383C7D180C207FC
:1022B000C183FD17C207C183BE863A8681450145A9
:1022C000913331A8B707002083D74728BE8505453D
:1022D000EFE09FCA8327C4FEFD172326F4FE832761
:1022E000C4FEEDF3B70700209387C704DC474147DE
:1022F00098CB0100F240624405618280011122CE38
:1023000000102326A4FE0327C4FE23A6E18683A78C
:10231000C18605476376F7000D476365F70211A88C
:10232000130700F82386E180130700FAA386E180F3
:1023300011A8130700FA2386E180130700F8A3868B
:10234000E18001000100724405618280011122CE0A
:1023500000102326A4FE0327C4FE23A4E18001006D
:10236000724405618280011122CE0010AA872E8757
:102370002317F4FEBA872316F4FEB707002003578D
:10238000E4FE2391E728B70700200357C4FE2392F9
:10239000E7280100724405618280797106D622D453
:1023A0000018AA87AE863287231FF4FCB687231E47
:1023B000F4FCBA87A30DF4FC83C7C180C207C183B4
:1023C0000357E4FDB337F70093F7F70F3E87130683
:1023D0009019BD67938587463A85EF10C01E83C765
:1023E000D180C207C1830357C4FDB337F70093F709
:1023F000F70F3E871306A019BD67938587463A8578
:10240000EF10601CA30704FE230704FEB70700209B
:102410009387C704DC474147D8CB83A78180054712
:10242000638EE70C639B0720A30704FED1A08347BC
:10243000F4FE1397070141838357E4FDBA97139580
:10244000070141818347F4FE1397070141838357B6
:10245000E4FDBA971397070141838357C4FDA10791
:1024600093960701C1828357C4FD3A86BE85EFF07B
:102470007FB98307B4FD138707FE8346F4FE4166E8
:10248000BA878607BA9786071307C6DEBA97B69744
:1024900083C70700A306F4FE230704FE81A0834739
:1024A000D4FE858B91CBB707002083D72728BE8524
:1024B0000545EFE07FAC09A8B707002083D7472880
:1024C000BE850545EFE05FAB8347D4FE8583A30659
:1024D000F4FE8347E4FE85072307F4FE0347E4FE8A
:1024E0009D47E3FEE7FA8347F4FE8507A307F4FE62
:1024F0000347F4FE9547E3FCE7F289A2A30704FE35
:102500003DA28347F4FE1397070141838357E4FDFF
:10251000BA971395070141818347F4FE139707018A
:1025200041838357E4FDBA9713970701418383578B
:10253000C4FDBD0793960701C1828357C4FD3A8647
:10254000BE85EFF03FAC8307B4FD938607FE83475B
:10255000F4FE3D6792061307C77F3697BA9783C785
:1025600007002306F4FE8307B4FD938607FE834726
:10257000F4FEA1073D6792061307C77F3697BA9707
:1025800083C70700A305F4FE230704FE81A0834749
:10259000C4FE858B91CBB707002083D72728BE8543
:1025A0000545EFE07F9D09A8B707002083D747289E
:1025B000BE850545EFE05F9C8347C4FE8583230607
:1025C000F4FE8347E4FE85072307F4FE0347E4FE99
:1025D0009D47E3FEE7FA230704FE81A08347B4FE8C
:1025E000858B91CBB707002083D72728BE8505456B
:1025F000EFE09F9809A8B707002083D74728BE853A
:102600000545EFE07F978347B4FE8583A305F4FE7D
:102610008347E4FE85072307F4FE0347E4FE9D4756
:10262000E3FEE7FA8347F4FE8507A307F4FE0347BA
:10263000F4FE9D47E3F7E7EC11A00100B707002087
:102640009387C704DC47414798CB0100B25022541E
:1026500045618280797106D622D40018AA872E8718
:10266000232CC4FC231FF4FCBA87231EF4FC83C76D
:10267000C180C207C1830357E4FDB337F70093F766
:10268000F70F3E871306D01EBD67938587463A85B0
:10269000EF00707383C7D180C207C1830357C4FDA5
:1026A000B337F70093F7F70F3E871306E01EBD67B9
:1026B000938587463A85EF001071231704FE61A0C9
:1026C00083A7818005476380E704A5EB0357E4FEF9
:1026D000BA878607BA9786071397070141838357FE
:1026E000E4FDBA9793960701C1828357E4FE03275E
:1026F00084FDBA97038707008357C4FD3A86BE85D9
:102700003685613925A88357E4FE8E0713970701A4
:1027100041838357E4FDBA9793960701C18283579B
:10272000E4FE032784FDBA97038707008357C4FD9F
:102730003A86BE853685953111A001008357E4FEA7
:1027400085072317F4FE8357E4FE032784FDBA9719
:1027500083870700B5F70100B2502254456182809B
:10276000397106DE22DC8000AA872324C4FC368768
:102770002317F4FCAE872316F4FCBA87A303F4FCFA
:1027800083C7C180C207C1830357E4FCB337F70096
:1027900093F7F70F3E871306B020BD6793858746F2
:1027A0003A85EF00506283C7D180C207C1830357C7
:1027B000C4FCB337F70093F7F70F3E871306C0202A
:1027C000BD67938587463A85EF00F05F834774FCC9
:1027D000B337F00093F7F70F3E871306D020BD679D
:1027E000938587463A85EF00105E834774FC93B764
:1027F000B70093F7F70F3E871306E020BD67938578
:1028000087463A85EF00305C832784FC2326F4FE5C
:1028100085472324F4FE9307C4FD314681453E8558
:10282000EFD01F9E834774FC85073E879307C4FD46
:102830003A86930500023E85EFD09F9C034774FCC7
:10284000A54763EBE70231A8032784FEBA878A070E
:10285000BA9786072324F4FE834774FCFD17A3036D
:10286000F4FC834774FCEDF30327C4FE832784FE46
:10287000B367F7022326F4FE9307C4FD8325C4FE45
:102880003E85EF2020299306C4FD0357C4FC8357DF
:10289000E4FC3686BA853E85753B0100F2506254F1
:1028A00021618280411106C622C400081308F00F7E
:1028B000C167F91705671307F70285669386D60285
:1028C00037A64A041306062081450545EFE00FF5BB
:1028D000C1460146854513057006EFD01FF7C14676
:1028E0000146854513057002EFD03FF6C146054607
:1028F000854513054006EFD05FF5C1460546854581
:1029000013050006EFD07FF483A7C1863E85EFF064
:10291000FF9EB707002003D72728B707002083D7DB
:102920004728BE853A85EFF01FA4B707002093879C
:10293000C704DC4313070008D8CB2945EFD0DF9646
:10294000B70700209387C704DC431307000898CB20
:1029500013058007EFD05F95B70700209387C70462
:10296000DC474147D8CB4545EFF08FE5130580079D
:10297000EFD09F931305100BEFF08FE485450545CD
:10298000EFE02FDA9305C0020545EFE08FD99305FC
:10299000D0020545EFE0EFD81305200BEFF04FE232
:1029A00085450545EFE0EFD79305C0020545EFE00B
:1029B0004FD79305D0020545EFE0AFD61305300B96
:1029C000EFF00FE085450545EFE0AFD59305C00278
:1029D0000545EFE00FD59305D0020545EFE06FD434
:1029E00085450545EFE0EFD39305C0020545EFE0CF
:1029F0004FD39305D0020545EFE0AFD21305400B4E
:102A0000EFF00FDC9D450545EFE0AFD11305000C5D
:102A1000EFF00FDB9305200A0545EFE08FD08945E5
:102A20000545EFE00FD0930540080545EFE06FCF77
:102A30001305100CEFF0CFD89305500C0545EFE0CF
:102A40004FCE1305200CEFF0AFD7A9450545EFE0B9
:102A50004FCD81450545EFE0CFCC1305300CEFF0AD
:102A60002FD69305A0080545EFE0AFCB9305A00254
:102A70000545EFE00FCB1305400CEFF06FD4930545
:102A8000A0080545EFE0EFC99305E00E0545EFE02E
:102A90004FC91305500CEFF0AFD2B9450545EFE033
:102AA0004FC813056003EFF0AFD183A7C186054778
:102AB0006380E70281CB09476381E7020D476384A6
:102AC000E70205A89305000C0545EFE08FC515A0AA
:102AD00081450545EFE0EFC429A89305000A0545A7
:102AE000EFE02FC439A0930500060545EFE06FC362
:102AF00001001305000EEFF0AFCCBD450545EFE03A
:102B00004FC2E9450545EFE0CFC1BD450545EFE0C2
:102B10004FC1E1450545EFE0CFC09305F002054503
:102B2000EFE02FC0930580020545EFE08FBF9305CE
:102B300000020545EFE0EFBE930520020545EFE0FA
:102B40004FBEFD450545EFE0CFBDED450545EFE046
:102B50004FBD930530020545EFE0AFBC9305700310
:102B60000545EFE00FBC81450545EFE08FBB9D4576
:102B70000545EFE00FBB89450545EFE08FBAC1453C
:102B80000545EFE00FBA1305100EEFF06FC3BD451A
:102B90000545EFE00FB9ED450545EFE08FB8BD45C0
:102BA0000545EFE00FB8DD450545EFE08FB793052C
:102BB00030030545EFE0EFB69305C0020545EFE0B1
:102BC0004FB6930590020545EFE0AFB59305E002DF
:102BD0000545EFE00FB5930500030545EFE06FB441
:102BE000930500030545EFE0CFB39305900305453A
:102BF000EFE02FB39305F0030545EFE08FB2814579
:102C00000545EFE00FB29D450545EFE08FB18D45DD
:102C10000545EFE00FB1C1450545EFE08FB0130565
:102C2000A002EFF0EFB981450545EFE08FAF894590
:102C30000545EFE00FAF81450545EFE08FAE930509
:102C400020080545EFE0EFAD1305B002EFF04FB7F8
:102C500081450545EFE0EFAC8D450545EFE06FACF4
:102C600081450545EFE0EFAB930530080545EFE002
:102C70004FAB1305000FEFF0AFB485450545EFE00E
:102C80004FAA1305600FEFF0AFB381450545EFE0A4
:102C90004FA91305A003EFF0AFB295450545EFE04E
:102CA0004FA813059002EFF0AFB1B707002093874C
:102CB000C704DC47414798CBEFF0AFDBEFF00FD311
:102CC0000100B240224441018280411122C6000825
:102CD0000100324441018280411122C60008B71729
:102CE00002409843B71702401367170098C3B717FD
:102CF0000240D443B71702403707FFF8758FD8C397
:102D0000B71702409443B71702403707F7FE7D1705
:102D1000758F98C3B71702409443B717024037071F
:102D2000FCFF7D17758F98C3B7170240D443B717C0
:102D30000240370781FF7D17758FD8C3B717024050
:102D400037079F0098C701003244410182807971A2
:102D500006D622D40018232EA4FCBD3F232604FE51
:102D6000232404FEB71702409443B717024041677B
:102D7000558F98C3B71702409843B7070200F98FE1
:102D80002324F4FE8327C4FE85072326F4FE83272D
:102D900084FE91E70327C4FE8567E31DF7FCB717A0
:102DA00002409843B7070200F98F89C7854723245B
:102DB000F4FE19A0232404FE032784FE8547631232
:102DC000F71637170240B71702405843D8C33717D2
:102DD0000240B71702405843D8C337170240B7170D
:102DE00002405843D8C3B7170240D443B717024034
:102DF0003707C1FF7D17758FD8C30327C4FDB747B9
:102E0000950893870740631BF700B7170240D44328
:102E1000B71702404167558FD8C355A80327C4FD93
:102E2000B7172707938707E0631CF700B71702401F
:102E3000D443B717024037073900558FD8C341A88C
:102E40000327C4FDB7E7B80593870780631CF70025
:102E5000B7170240D443B717024037072900558FF0
:102E6000D8C3B5A00327C4FDB7A74A04938707209A
:102E7000631CF700B7170240D443B7170240370767
:102E80001D00558FD8C3A1A00327C4FDB777DC026E
:102E9000938707C0631CF700B7170240D443B717E6
:102EA000024037071100558FD8C315A00327C4FD72
:102EB000B7376E0193870760631BF700B7170240AF
:102EC000D443B717024037070500558FD8C3B7174B
:102ED00002409443B717024037070001558F98C34B
:102EE0000100B71702409843B7070002F98FF5DBDE
:102EF000B7170240D843B7170240719BD8C3B71722
:102F00000240D843B717024013672700D8C3010017
:102F1000B7170240DC4313F7C700A147E31AF7FED7
:102F200011A001A0B250225445618280011106CE49
:102F300022CC00102326A4FE0327C4FE23A0E18296
:102F4000EFF09FD90325C4FEEFF07FE0EF10D065CE
:102F50000100F240624405618280411122C60008EE
:102F600001000100324441018280011106CE22CCD1
:102F70000010232604FE232404FE232604FE25A09D
:102F8000232404FE39A0D13F832784FE8507232410
:102F9000F4FE032784FEC167E367F7FE8327C4FEC0
:102FA00085072326F4FE0327C4FE9307F00FE3F9F9
:102FB000E7FC0100F240624405618280411122C6B3
:102FC00000080100324441018280011106CE22CC6A
:102FD00000102326A4FE8325C4FE0945EFE04FE739
:102FE0000100F240624405618280130101D9232669
:102FF00011262324812623229126801C232EA4D847
:10300000232CB4D8232AC4D82328D4D8231504FECB
:10301000231404FE231304FE231204FE231104FED2
:10302000032584D9EF90D00FAA87C207C187231345
:10303000F4FE83D741B089C7938741B09C4B8297F8
:1030400083C7118793F7F70F638D074A83D741B082
:1030500063870744938741B0D447835724FE13976F
:103060000701418793170701C1838507C207C18301
:10307000C207C1872311F4FE93170701C1830326FA
:10308000C4D9BE8501458296832784D92326F4FEC0
:10309000032584D9EF90D008AA87C207C1872313DC
:1030A000F4FE938741B083D727003E87938741B0D2
:1030B00083C76700B347F702C207C1872312F4FE34
:1030C00001008327C4FE138717002326E4FE8387AD
:1030D0000700E5FB231404FEA1A88327C4FEFD1707
:1030E0002326F4FE8327C4FE038707009307F0021C
:1030F000630AF7008327C4FE038707009307C00510
:10310000631BF700835784FEC207C1838507C2078C
:10311000C1832314F4FE835764FEC207C187C2072C
:10312000C183FD17C207C183C207C1872313F4FE01
:10313000835784FE139707014183854763E8E700BF
:10314000835764FEC207C187E3D907F8835764FE3B
:10315000C207C18763C207028327C4FE85072326EF
:10316000F4FE130704EE0326C4FEBD679385074EE5
:103170003A85EF9080761DA8835784FEC207C183ED
:1031800081EF130704EE0326C4FEBD679385C74E87
:103190003A85EF90807419A8130704EE0326C4FE45
:1031A000BD679385074E3A85EF902073231504FE83
:1031B00021AA231404FE59A0930704EE3E85EF9044
:1031C00020762A87835784FEC207C183BE86835731
:1031D000A4FEC207C1833E86835744FEC207C1874F
:1031E000B307F602B6976367F706835784FEC207F4
:1031F000C1833E878357A4FEC207C183BE8683571F
:1032000044FEC207C187B387F602BA97035784FE0C
:1032100042074183BA86130704FFBA97038707EF73
:10322000930704FFB6972388E7EA835784FEC20713
:10323000C1838507C207C1832314F4FE835784FE2C
:10324000C207C1833E87835744FEC207C187E34557
:10325000F7F611A00100835784FEC207C18313074C
:1032600004FFBA97238807EA938741B003A8C700F1
:10327000938741B083C77700139707014183835732
:1032800024FE93960701C18693970601C1838507A3
:10329000C207C183C207C1872311F4FE93970601B9
:1032A000C183B307F702C207C183130704EA3A8652
:1032B000BE85014502988357A4FEC207C1838507D6
:1032C000C207C1832315F4FE8357A4FEC207C1833E
:1032D000BE84930704EE3E85EF9080642A8783576F
:1032E00044FEC207C187B357F7028507E3E3F4EC56
:1032F000130704EE032644D9BD679385C74F3A856B
:10330000EF90A05D938741B003A8C700938741B0B9
:1033100083C77700139707014183835724FE939651
:103320000701C18693970601C1838507C207C18340
:10333000C207C1872311F4FE93970601C183B30727
:10334000F702C207C183130704EE3A86BE85014522
:103350000298832704D96386071A231504FE21AA3D
:10336000231404FE59A0032504D9EF90605B2A873B
:10337000835784FEC207C183BE868357A4FEC2075B
:10338000C1833E86835744FEC207C187B307F60256
:10339000B6976368F706835784FEC207C1833E87EA
:1033A0008357A4FEC207C183BE86835744FEC2076B
:1033B000C187B387F602BA973E87832704D9BA97A5
:1033C000035784FE42074183BA86038707009307A9
:1033D00004FFB6972388E7EA835784FEC207C183B8
:1033E0008507C207C1832314F4FE835784FEC207F6
:1033F000C1833E87835744FEC207C187E345F7F682
:1034000011A00100835784FEC207C183130704FF84
:10341000BA97238807EA938741B003A8C700938728
:1034200041B083C77700139707014183835724FE78
:1034300093960701C18693970601C1838507C2074A
:10344000C183C207C1872311F4FE93970601C1838C
:10345000B307F702C207C183130704EA3A86BE85A1
:10346000014502988357A4FEC207C1838507C2079E
:10347000C1832315F4FE8357A4FEC207C183BE8413
:10348000032504D9EF90C0492A87835744FEC20719
:10349000C187B357F7028507E3E4F4EC9DA09307D7
:1034A00004DA1306001081453E85EFC07FD593876F
:1034B00041B09C470325C4D98297832704D999CF6B
:1034C000130504DA032704D9832644D9032684D9B3
:1034D000BD6793858750EF90404029A8130704DA11
:1034E000832644D9032684D9BD67938547523A85FC
:1034F000EF90A03E938741B09847930704DA3E854A
:10350000029701008320C1260324812683244126BB
:10351000130101278280411106C622C4000883C717
:10352000118793F7F70F89CF938501870945EFE05E
:103530006FA0054693850187138581AEEF003000AB
:103540000100B240224441018280797106D622D422
:103550000018232EA4FC232CB4FC232AC4FC23260D
:1035600004FEA9A00100BD679387C77D9C47930512
:1035700000043E85EF40701FAA87F5D7BD6793878B
:10358000C77D9C47BE86832784FD13871700232CA5
:10359000E4FC83870700C207C183BE853685EF4000
:1035A000F0198327C4FE85072326F4FE0327C4FEF3
:1035B000832744FDE348F7FA832744FD3E85B25054
:1035C000225445618280011106CE22CC0010AA87C8
:1035D0002324B4FE2322C4FEA307F4FE8347F4FE93
:1035E000B1E383C7418293F7F70F8DCF83C721875C
:1035F00091C301A083C72187850713F7F70F23899C
:10360000E186EF10A077EFF07F9B8146032644FE12
:10361000832584FEBD671385C753EFF01F9DEFF030
:10362000DF94E5B70100F240624405618280011138
:1036300022CE00102326A4FE8327C4FE2390070079
:103640008327C4FE7D572391E7008327C4FE7D575F
:103650002392E7008327C4FE7D572383E700832757
:10366000C4FE7D57A383E7008327C4FE23A407007D
:103670008327C4FE23A607008327C4FE23A80700D0
:103680000100724405618280011122CE00102326C0
:10369000A4FE8327C4FE03D707002392E1B083274B
:1036A000C4FE03D72700938741B02391E700832707
:1036B000C4FE03D74700938741B02392E7008327D6
:1036C000C4FE03C76700938741B02383E7008327C5
:1036D000C4FE03C77700938741B0A383E700832725
:1036E000C4FE9847938741B098C78327C4FED84744
:1036F000938741B0D8C78327C4FE984B938741B0C6
:1037000098CB0547A388E186010072440561828059
:10371000797106D622D400189307C4FD3E85EFF0D8
:103720001FF1B73700009387A7FC2322F4FE93070D
:10373000C4FD3E85913F89679386B70289671386EA
:10374000A702F167938507200945EFE08F84930670
:103750000004138681AA8145138581AEEF100017FE
:1037600085450945EFD0DFF40100B2502254456190
:103770008280011122CE00102326A4FE2324B4FE51
:103780008327C4FE03C7970083C6A700A206558FF0
:1037900083C6B700C206558F83C7C700E207D98F1B
:1037A0003E87832784FE3E978327C4FE9375F70FD9
:1037B00083C69700818A3686AE86D18EA384D700D1
:1037C0009356870093F5F60F83C6A700818A368645
:1037D000AE86D18E2385D7009356070193F5F60F59
:1037E00083C6B700818A3686AE86D18EA385D70080
:1037F0001356870103C7C700018BBA863287558FDE
:103800002386E70055A08327C4FE03C7970083C61D
:10381000A700A206558F83C6B700C206558F83C77F
:10382000C700E207D98F3E868327C4FE03C757012E
:1038300083C66701A206558F83C67701C206558FDE
:1038400083C78701E207D98F3307F6408327C4FE79
:103850009375F70F83C69700818A3686AE86D18E20
:10386000A384D7009356870093F5F60F83C6A7006D
:10387000818A3686AE86D18E2385D700935607017E
:1038800093F5F60F83C6B700818A3686AE86D18E51
:10389000A385D7001356870103C7C700018BBA86DB
:1038A0003287558F2386E7008327C4FE03C757015D
:1038B00083C66701A206558F83C67701C206558F5E
:1038C00083C78701E207D98F3E868327C4FE03C7DB
:1038D000970083C6A700A206558F83C6B700C2060D
:1038E000558F83C7C700E207D98FE3FEC7F00100F9
:1038F000724405618280011122CE00102326A4FEAD
:103900002324B4FE8327C4FE03C7D70083C6E70081
:10391000A206558F83C6F700C206558F83C70701DD
:10392000E207D98F3E87832784FE3E978327C4FE14
:103930009375F70F83C6D700818A3686AE86D18EFF
:10394000A386D7009356870093F5F60F83C6E7004A
:10395000818A3686AE86D18E2387D700935607019B
:1039600093F5F60F83C6F700818A3686AE86D18E30
:10397000A387D7001356870103C70701018BBA86B7
:103980003287558F2388E70055A08327C4FE03C7DD
:10399000D70083C6E700A206558F83C6F700C2068C
:1039A000558F83C70701E207D98F3E868327C4FE60
:1039B00003C7570183C66701A206558F83C67701E7
:1039C000C206558F83C78701E207D98F3307F640B8
:1039D0008327C4FE9375F70F83C6D700818A368686
:1039E000AE86D18EA386D7009356870093F5F60F47
:1039F00083C6E700818A3686AE86D18E2387D700BC
:103A00009356070193F5F60F83C6F700818A368631
:103A1000AE86D18EA387D7001356870103C707014F
:103A2000018BBA863287558F2388E7008327C4FE2F
:103A300003C7570183C66701A206558F83C6770166
:103A4000C206558F83C78701E207D98F3E86832739
:103A5000C4FE03C7D70083C6E700A206558F83C6FE
:103A6000F700C206558F83C70701E207D98FE3FE2F
:103A7000C7F00100724405618280797106D622D4B4
:103A80000018232EA4FC8327C4FDB337F00093F75E
:103A9000F70F3E8713065005BD67938587553A8516
:103AA000EFF07FB2232604FE8327C4FD83C70700FF
:103AB00093E7170013F7F70F8327C4FD2380E70070
:103AC0008327C4FD03C79700018BA384E70003C7C6
:103AD000A700018B2385E70003C7B700018BA385EF
:103AE000E70003C7C700018B2386E7008327C4FDD7
:103AF00003C7D700018BA386E70003C7E700018B4C
:103B00002387E70003C7F700018BA387E70003C7FC
:103B10000701018B2388E7008327C4FD03C75701F2
:103B200083C66701A206558F83C67701C206558FEB
:103B300083C78701E207D98F3E878327C4FD93752A
:103B4000F70F83C61701818A3686AE86D18EA38889
:103B5000D7009356870093F5F60F83C62701818A15
:103B60003686AE86D18E2389D7009356070193F50A
:103B7000F60F83C63701818A3686AE86D18EA38939
:103B8000D7001356870103C74701018BBA863287D6
:103B9000558F238AE7008327C4FD03C7170083C618
:103BA0002700A206558F83C63700C206558F83C7EC
:103BB0004700E207D98F0547638DE70489C70947A6
:103BC0006380E70AEDA08327C4FD03C7570083C6BF
:103BD0006700A206558F83C67700C206558F83C73C
:103BE0008700E207D98F3E858327C4FD03C75701AD
:103BF00083C66701A206558F83C67701C206558F1B
:103C000083C78701E207D98F3E868145EFC04FDF2A
:103C100079A88327C4FD03C7570083C66700A2069F
:103C2000558F83C67700C206558F83C78700E2078A
:103C3000D98F3E858327C4FD03C7570183C667011B
:103C4000A206558F83C67701C206558F83C78701A9
:103C5000E207D98F86073E868145EFC06FDA81A8DB
:103C60008327C4FD03C7570083C66700A206558F8C
:103C700083C67700C206558F83C78700E207D98FB6
:103C80003E858327C4FD03C7570183C66701A2068B
:103C9000558F83C67701C206558F83C78701E20718
:103CA000D98F8A073E868145EFC08FD501008327D3
:103CB000C4FD238007008327C4FE3E85B2502254F2
:103CC00045618280011106CE22CC00102326A4FE7D
:103CD0008327C4FEB337F00093F7F70F3E87130630
:103CE0006007BD67938587553A85EFF0DF8D8327A1
:103CF000C4FE03C7570183C66701A206558F83C65A
:103D00007701C206558F83C78701E207D98F3E86A8
:103D10008327C4FE03C7170183C62701A206558F58
:103D200083C63701C206558F83C74701E207D98F83
:103D3000B307F6403E85F2406244056182807971A6
:103D400006D622D40018232EA4FC232CB4FC232A4C
:103D5000C4FC8327C4FDB337F00093F7F70F3E8709
:103D60001306000BBD67938587553A85EFF0BF8535
:103D7000232604FE232404FE832784FD89E78D4740
:103D80002326F4FE59AB8327C4FD83C70700958B18
:103D900093F7F70F89C791472326F4FEBDAB83271E
:103DA000C4FD83C7070093E7470013F7F70F832786
:103DB000C4FD2380E7008327C4FD03C7170183C622
:103DC0002701A206558F83C63701C206558F83C7C8
:103DD0004701E207D98F3E87832744FD6361F7528D
:103DE0008327C4FD03C7570183C66701A206558F09
:103DF00083C67701C206558F83C78701E207D98F33
:103E00003E868327C4FD03C7970083C6A700A2068A
:103E1000558F83C6B700C206558F83C7C700E20718
:103E2000D98FB307F6402324F4FE032744FD8327EC
:103E300084FE63F3E72E8327C4FD03C7170083C600
:103E40002700A206558F83C63700C206558F83C749
:103E50004700E207D98F05476385E70E89C7094701
:103E60006386E71C11A98327C4FD03C7570083C6D7
:103E70006700A206558F83C67700C206558F83C799
:103E80008700E207D98F3E868327C4FD03C79700CA
:103E900083C6A700A206558F83C6B700C206558FFA
:103EA00083C7C700E207D98FB297032684FE832514
:103EB00084FD3E85EF70D058832584FE0325C4FD24
:103EC000EFF03F8B8327C4FD03C7570083C667000D
:103ED000A206558F83C67700C206558F83C7870019
:103EE000E207D98F3E868327C4FD03C7970083C6A8
:103EF000A700A206558F83C6B700C206558F83C799
:103F0000C700E207D98FB306F600032784FD832795
:103F100084FEB305F700032744FD832784FEB3071F
:103F2000F7403E863685EF70B051032744FD832766
:103F300084FEB307F740BE850325C4FDEFF07F8301
:103F400025AE8327C4FD03C7570083C66700A206BA
:103F5000558F83C67700C206558F83C78700E20757
:103F6000D98F3E868327C4FD03C7970083C6A70069
:103F7000A206558F83C6B700C206558F83C7C700F8
:103F8000E207D98F86073307F600832784FE86076A
:103F90003E86832584FD3A85EF70904A832584FE12
:103FA0000325C4FDEFF0EFFC8327C4FD03C75700D2
:103FB00083C66700A206558F83C67700C206558F59
:103FC00083C78700E207D98F3E868327C4FD03C7D6
:103FD000970083C6A700A206558F83C6B700C20606
:103FE000558F83C7C700E207D98F8607B306F6004F
:103FF000832784FE8607032784FDB305F700032784
:1040000044FD832784FEB307F74086073E86368546
:10401000EF701043032744FD832784FEB307F74066
:10402000BE850325C4FDEFF0CFF4B9A48327C4FDFA
:1040300003C7570083C66700A206558F83C6770063
:10404000C206558F83C78700E207D98F3E86832734
:10405000C4FD03C7970083C6A700A206558F83C679
:10406000B700C206558F83C7C700E207D98F8A07FA
:104070003307F600832784FE8A073E86832584FD66
:104080003A85EF70F03B832584FE0325C4FDEFF0F5
:104090004FEE8327C4FD03C7570083C66700A206FF
:1040A000558F83C67700C206558F83C78700E20706
:1040B000D98F3E868327C4FD03C7970083C6A70018
:1040C000A206558F83C6B700C206558F83C7C700A7
:1040D000E207D98F8A07B306F600832784FE8A0792
:1040E000032784FDB305F700032744FD832784FEDF
:1040F000B307F7408A073E863685EF707034032792
:1041000044FD832784FEB307F740BE850325C4FD25
:10411000EFF02FE601008DA28327C4FD03C717002F
:1041200083C62700A206558F83C63700C206558F67
:1041300083C74700E207D98F05476387E70689C72A
:1041400009476387E70C0DAA8327C4FD03C75700FF
:1041500083C66700A206558F83C67700C206558FB7
:1041600083C78700E207D98F3E868327C4FD03C734
:10417000970083C6A700A206558F83C6B700C20664
:10418000558F83C7C700E207D98FB297032644FD36
:10419000832584FD3E85EF70B02A832544FD0325E9
:1041A000C4FDEFF00FDDC9A88327C4FD03C7570086
:1041B00083C66700A206558F83C67700C206558F57
:1041C00083C78700E207D98F3E868327C4FD03C7D4
:1041D000970083C6A700A206558F83C6B700C20604
:1041E000558F83C7C700E207D98F86073307F600CC
:1041F000832744FD86073E86832584FD3A85EF703C
:104200003024832544FD0325C4FDEFF08FD6ADA0F7
:104210008327C4FD03C7570083C66700A206558FD6
:1042200083C67700C206558F83C78700E207D98F00
:104230003E868327C4FD03C7970083C6A700A20656
:10424000558F83C6B700C206558F83C7C700E207E4
:10425000D98F8A073307F600832744FD8A073E86F5
:10426000832584FD3A85EF70B01D832544FD032529
:10427000C4FDEFF00FD001008327C4FD03C7170171
:1042800083C62701A206558F83C63701C206558F04
:1042900083C74701E207D98F3E87832744FD1D8FDF
:1042A0008327C4FD9375F70F83C61701818A36866D
:1042B000AE86D18EA388D7009356870093F5F60F6C
:1042C00083C62701818A3686AE86D18E2389D700A0
:1042D0009356070193F5F60F83C63701818A368618
:1042E000AE86D18EA389D7001356870103C7470135
:1042F000018BBA863287558F238AE70021A0954724
:104300002326F4FE8327C4FD83C70700ED9B13F724
:10431000F70F8327C4FD2380E7008327C4FE3E8573
:10432000B250225445618280797106D622D4001899
:10433000232EA4FC232CB4FC232AC4FC2328D4FC65
:104340008327C4FDB337F00093F7F70F3E871306BA
:104350001016BD67938587553A85EFF0CFA6832762
:1043600044FDB337F00093F7F70F3E87130620168E
:10437000BD67938587553A85EFF0EFA4232604FEA9
:10438000232404FE232204FE832784FD89E78D472E
:104390002326F4FEA9A18327C4FD83C707008D8BC4
:1043A00093F7F70F91CB832744FD032744FE98C36F
:1043B00099472326F4FE21A30325C4FDEFF09F9027
:1043C0002322A4FE832744FD9C43032744FE6379F4
:1043D000F702832744FD032744FE98C39D47232605
:1043E000F4FE832744FE89EF8327C4FD83C70700BB
:1043F000DD9B13F7F70F8327C4FD2380E700C1A1DE
:104400008327C4FD83C7070093E7870013F7F70FDF
:104410008327C4FD2380E7008327C4FD03C757011A
:1044200083C66701A206558F83C67701C206558FE2
:1044300083C78701E207D98F3E868327C4FD03C760
:10444000D70083C6E700A206558F83C6F700C206D1
:10445000558F83C70701E207D98FB307F64023249E
:10446000F4FE832744FD9C43032784FE6366F71410
:104470008327C4FD03C7170083C62700A206558FF4
:1044800083C63700C206558F83C74700E207D98F1E
:1044900005476384E70689C70947638FE70A2DA6A6
:1044A0008327C4FD03C7570083C66700A206558F44
:1044B00083C67700C206558F83C78700E207D98F6E
:1044C0003E868327C4FD03C7D70083C6E700A20644
:1044D000558F83C6F700C206558F83C70701E207D1
:1044E000D98F3307F600832744FD9C433E86BA8567
:1044F000032584FDEF70C074C1AC8327C4FD03C7DE
:10450000570083C66700A206558F83C67700C20690
:10451000558F83C78700E207D98F3E868327C4FD66
:1045200003C7D70083C6E700A206558F83C6F700EE
:10453000C206558F83C70701E207D98F8607330765
:10454000F600832744FD9C4386073E86BA850325F3
:1045500084FDEF70E06E8DAC8327C4FD03C7570068
:1045600083C66700A206558F83C67700C206558FA3
:1045700083C78700E207D98F3E868327C4FD03C720
:10458000D70083C6E700A206558F83C6F700C20690
:10459000558F83C70701E207D98F8A073307F600D3
:1045A000832744FD9C438A073E86BA85032584FD04
:1045B000EF700069010009AC8327C4FD03C7170031
:1045C00083C62700A206558F83C63700C206558FC3
:1045D00083C74700E207D98F05476383E70A89C786
:1045E00009476381E714CDA28327C4FD03C75700A1
:1045F00083C66700A206558F83C67700C206558F13
:1046000083C78700E207D98F3E868327C4FD03C78F
:10461000D70083C6E700A206558F83C6F700C206FF
:10462000558F83C70701E207D98FB297032684FE0F
:10463000BE85032584FDEF70A060032784FD8327DA
:1046400084FE3305F7008327C4FD03C7570083C6E4
:104650006700A206558F83C67700C206558F83C7B1
:104660008700E207D98FBE86832744FD98438327BE
:1046700084FEB307F7403E86B685EF70605CA9A262
:104680008327C4FD03C7570083C66700A206558F62
:1046900083C67700C206558F83C78700E207D98F8C
:1046A0003E868327C4FD03C7D70083C6E700A20662
:1046B000558F83C6F700C206558F83C70701E207EF
:1046C000D98F86073307F600832784FE86073E8648
:1046D000BA85032584FDEF70A056832784FE8607E4
:1046E000032784FD3305F7008327C4FD03C7570064
:1046F00083C66700A206558F83C67700C206558F12
:1047000083C78700E207D98FBE86832744FD98437D
:10471000832784FEB307F74086073E86B685EF7091
:1047200020525DA08327C4FD03C7570083C66700DE
:10473000A206558F83C67700C206558F83C78700B0
:10474000E207D98F3E868327C4FD03C7D70083C6FF
:10475000E700A206558F83C6F700C206558F83C7B0
:104760000701E207D98F8A073307F600832784FE03
:104770008A073E86BA85032584FDEF70604C832747
:1047800084FE8A07032784FD3305F7008327C4FDD1
:1047900003C7570083C66700A206558F83C67700FC
:1047A000C206558F83C78700E207D98FBE8683274D
:1047B00044FD9843832784FEB307F7408A073E866B
:1047C000B685EF70E04701008327C4FD83C707006B
:1047D000DD9B13F7F70F8327C4FD2380E7008327B2
:1047E00004FDF1EF8327C4FD03C70700AD4763163F
:1047F000F70089472326F4FED9A08327C4FD83C789
:10480000070093E7270013F7F70F8327C4FD2380E2
:10481000E700832744FD9C43BE850325C4FDEFF0DC
:104820008F8D8327C4FD03C7170183C62701A20606
:10483000558F83C63701C206558F83C74701E207EC
:10484000D98F3E87832744FD9C433E978327C4FD31
:104850009375F70F83C61701818A3686AE86D18E8F
:10486000A388D7009356870093F5F60F83C62701D8
:10487000818A3686AE86D18E2389D700935607016A
:1048800093F5F60F83C63701818A3686AE86D18EC0
:10489000A389D7001356870103C74701018BBA8646
:1048A0003287558F238AE7008327C4FD83C707001B
:1048B000F59B13F7F70F8327C4FD2380E7008327B9
:1048C000C4FE3E85B250225445618280797106D67D
:1048D00022D40018232EA4FC232CB4FC232AC4FCCD
:1048E0002328D4FC8327C4FDB337F00093F7F70FD8
:1048F0003E8713062022BD67938587553A85EFE0F2
:104900009FCC232604FE8327C4FD032744FD137692
:10491000F70F03C75700018BBA863287558FA382E2
:10492000E700032744FD21831376F70F03C76700D1
:10493000018BBA863287558F2383E700032744FD16
:1049400041831376F70F03C77700018BBA8632874E
:10495000558FA383E700032744FD1356870103C740
:104960008700018BBA863287558F2384E70083271F
:10497000C4FD238007008327C4FD032784FD13762D
:10498000F70F03C71700018BBA863287558FA380B4
:10499000E700032784FD21831376F70F03C7270061
:1049A000018BBA863287558F2381E700032784FD68
:1049B00041831376F70F03C73700018BBA8632871E
:1049C000558FA381E700032784FD1356870103C792
:1049D0004700018BBA863287558F2382E7008327F1
:1049E000C4FD03C79700018BA384E70003C7A7009A
:1049F000018B2385E70003C7B700018BA385E70080
:104A000003C7C700018B2386E7008327C4FD03C7C4
:104A1000D700018BA386E70003C7E700018B23873C
:104A2000E70003C7F700018BA387E70003C707016F
:104A3000018B2388E7008327C4FD032704FD137639
:104A4000F70F03C71701018BBA863287558FA388EA
:104A5000E700032704FD21831376F70F03C727011F
:104A6000018BBA863287558F2389E700032704FD1F
:104A700041831376F70F03C73701018BBA8632875C
:104A8000558FA389E700032704FD1356870103C749
:104A90004701018BBA863287558F238AE700832727
:104AA000C4FD032704FD1376F70F03C75701018BDD
:104AB000BA863287558FA38AE700032704FD218336
:104AC0001376F70F03C76701018BBA863287558FBC
:104AD000238BE700032704FD41831376F70F03C7F9
:104AE0007701018BBA863287558FA38BE7000327A6
:104AF00004FD1356870103C78701018BBA863287ED
:104B0000558F238CE7008327C4FE3E85B250225484
:104B100045618280397106DE22DC80002326A4FCF8
:104B20002324B4FC8327C4FCB337F00093F7F70FBA
:104B30003E8713060008BD679385875B3A85EFE0E3
:104B40009FA8A30704FE232404FE8327C4FCE1CB13
:104B5000832784FC63D307028327C4FC13871700D1
:104B60002326E4FC1307D0022380E700832784FC7C
:104B7000B307F0402324F4FCB9A8832784FCA1EFF9
:104B80008327C4FC130700032380E70051A80327F1
:104B900084FCA947B367F7022324F4FE832784FE2D
:104BA00013D7F741832784FEB98F998F0347F4FE0B
:104BB00093061700A307D4FEBA8613F7F70F9307DF
:104BC00004FFB6972384E7FE032784FCA947B34775
:104BD000F7022324F4FC832784FCD5FB2DA883470C
:104BE000F4FEFD17130704FFBA9783C787FE938768
:104BF000070393F6F70F8327C4FC138717002326B8
:104C0000E4FC1397860161872380E7008347F4FE65
:104C1000FD17A307F4FE8347F4FEF1F311A0010092
:104C20000100F250625421618280411122C60008C5
:104C30009967938787087390078001003244410188
:104C40008280411122C60008996773900780010095
:104C5000324441018280011122CE00102326A4FE9D
:104C60008327C4FEFD8B0547B316F70037E700E046
:104C70008327C4FE9583938707048A07BA9794C352
:104C80000100724405618280011122CE00102326AA
:104C9000A4FE8327C4FEFD8B0547B316F70037E754
:104CA00000E08327C4FE9583938707068A07BA9797
:104CB00094C30100724405618280011122CE00106C
:104CC0002326A4FEAE87A305F4FE37E700E0832782
:104CD000C4FEBA970347B4FE2380E7400100724444
:104CE00005618280011106CE22CC00102326A4FE8D
:104CF0000325C4FEEFF03FF60100F2406244056177
:104D00008280011106CE22CC00102326A4FE0325AA
:104D1000C4FEEFF07FF70100F2406244056182803B
:104D2000011106CE22CC00102326A4FEAE87A305D7
:104D3000F4FE8347B4FEBE850325C4FEEFF0FFF703
:104D40000100F240624405618280011106CE22CC4E
:104D500000102326A4FE8327C4FE99C783A741879A
:104D60001387F7FF23AAE18683A7418799E3EFF032
:104D7000DFEB0100F240624405618280411106C60A
:104D800022C4000883A7418799E3EFF09FEB83A734
:104D900041871387170023AAE18683A741873E85B1
:104DA000B240224441018280411106C622C400085B
:104DB0000145EFF09FF90100B24022444101828099
:104DC000357106CF16CD1ACB1EC922C72AC52EC3F0
:104DD00032C1B6DEBADCBEDAC2D8C6D6F2D4F6D25A
:104DE000FAD0FECE82E686E48AE28EE012FE16FC5F
:104DF0001AFA1EF82AF62EF432F236F03AEE3EECAB
:104E000042EA46E872E676E47AE27EE00011930533
:104E10005052B747014013850780EF306019AA87C9
:104E200089CB93055052B747014013850780EF3077
:104E300040280100FA40EA425A43CA433A442A450C
:104E40009A450A46F6566657D6574658B658265ECD
:104E5000965E065FF64F3660A660166186617272D6
:104E6000E2725273C2733275A275127682767267DD
:104E7000E2675268C268326EA26E126F826F0D6175
:104E800073002030357106CF16CD1ACB1EC922C74C
:104E90002AC52EC332C1B6DEBADCBEDAC2D8C6D647
:104EA000F2D4F6D2FAD0FECE82E686E48AE28EE032
:104EB00012FE16FC1AFA1EF82AF62EF432F236F01A
:104EC0003AEE3EEC42EA46E872E676E47AE27EE0CA
:104ED000001193055052B747004013850740EF304B
:104EE000200DAA8789CB93055052B7470040138500
:104EF0000740EF30001C0100FA40EA425A43CA431F
:104F00003A442A459A450A46F6566657D6574658B1
:104F1000B658265E965E065FF64F3660A66016614E
:104F200086617272E2725273C2733275A275127622
:104F300082767267E2675268C268326EA26E126F42
:104F4000826F0D6173002030357106CF16CD1ACBFC
:104F50001EC922C72AC52EC332C1B6DEBADCBEDAEC
:104F6000C2D8C6D6F2D4F6D2FAD0FECE82E686E415
:104F70008AE28EE012FE16FC1AFA1EF82AF62EF4C9
:104F800032F236F03AEE3EEC42EA46E872E676E479
:104F90007AE27EE0001193055052B7570040138526
:104FA0000780EF30E000AA8799CBEFE0CFD69305DA
:104FB0005052B757004013850780EF30800F010033
:104FC000FA40EA425A43CA433A442A459A450A46B5
:104FD000F6566657D6574658B658265E965E065F12
:104FE000F64F3660A660166186617272E272527385
:104FF000C2733275A275127682767267E267526862
:10500000C268326EA26E126F826F0D617300203023
:10501000357106CF16CD1ACB1EC922C72AC52EC39D
:1050200032C1B6DEBADCBEDAC2D8C6D6F2D4F6D207
:10503000FAD0FECE82E686E48AE28EE012FE16FC0C
:105040001AFA1EF82AF62EF432F236F03AEE3EEC58
:1050500042EA46E872E676E47AE27EE000119305E1
:105060005052B7570040138507C0EF207074AA87CD
:1050700089CB93055052B7570040138507C0EF30D6
:1050800040030100FA40EA425A43CA433A442A45DF
:105090009A450A46F6566657D6574658B658265E7B
:1050A000965E065FF64F3660A66016618661727284
:1050B000E2725273C2733275A2751276827672678B
:1050C000E2675268C268326EA26E126F826F0D6123
:1050D00073002030357106CF16CD1ACB1EC922C7FA
:1050E0002AC52EC332C1B6DEBADCBEDAC2D8C6D6F5
:1050F000F2D4F6D2FAD0FECE82E686E48AE28EE0E0
:1051000012FE16FC1AFA1EF82AF62EF432F236F0C7
:105110003AEE3EEC42EA46E872E676E47AE27EE077
:1051200000119305505237550040EF207068AA8750
:1051300091CB83A701818297930550523755004048
:10514000EF2030770100FA40EA425A43CA433A441A
:105150002A459A450A46F6566657D6574658B658CF
:10516000265E965E065FF64F3660A6601661866123
:105170007272E2725273C2733275A27512768276BF
:105180007267E2675268C268326EA26E126F826FF7
:105190000D6173002030357106CF16CD1ACB1EC9B4
:1051A00022C72AC52EC332C1B6DEBADCBEDAC2D8E7
:1051B000C6D6F2D4F6D2FAD0FECE82E686E48AE2F1
:1051C0008EE012FE16FC1AFA1EF82AF62EF432F2BF
:1051D00036F03AEE3EEC42EA46E872E676E47AE2EF
:1051E0007EE0001193055052B727004013850780D9
:1051F000EF20105CAA8789CB93055052B727004057
:1052000013850780EF20F06A0100FA40EA425A4312
:10521000CA433A442A459A450A46F6566657D6572F
:105220004658B658265E965E065FF64F3660A66014
:10523000166186617272E2725273C2733275A27520
:10524000127682767267E2675268C268326EA26E28
:10525000126F826F0D6173002030357106CF16CD4D
:105260001ACB1EC922C72AC52EC332C1B6DEBADC8C
:10527000BEDAC2D8C6D6F2D4F6D2FAD0FECE82E6D4
:1052800086E48AE28EE012FE16FC1AFA1EF82AF66E
:105290002EF432F236F03AEE3EEC42EA46E872E69E
:1052A00076E47AE27EE0001193055052B727004081
:1052B000138507C0EF20D04FAA8781CF83A78181B4
:1052C000829793055052B7270040138507C0EF20FF
:1052D000505E0100FA40EA425A43CA433A442A4522
:1052E0009A450A46F6566657D6574658B658265E29
:1052F000965E065FF64F3660A66016618661727232
:10530000E2725273C2733275A27512768276726738
:10531000E2675268C268326EA26E126F826F0D61D0
:1053200073002030357106CF16CD1ACB1EC922C7A7
:105330002AC52EC332C1B6DEBADCBEDAC2D8C6D6A2
:10534000F2D4F6D2FAD0FECE82E686E48AE28EE08D
:1053500012FE16FC1AFA1EF82AF62EF432F236F075
:105360003AEE3EEC42EA46E872E676E47AE27EE025
:1053700000119305505237250040EF207043AA8753
:1053800089CBEFC03FAE9305505237250040EF2048
:1053900050520100FA40EA425A43CA433A442A456D
:1053A0009A450A46F6566657D6574658B658265E68
:1053B000965E065FF64F3660A66016618661727271
:1053C000E2725273C2733275A27512768276726778
:1053D000E2675268C268326EA26E126F826F0D6110
:1053E00073002030357106CF16CD1ACB1EC922C7E7
:1053F0002AC52EC332C1B6DEBADCBEDAC2D8C6D6E2
:10540000F2D4F6D2FAD0FECE82E686E48AE28EE0CC
:1054100012FE16FC1AFA1EF82AF62EF432F236F0B4
:105420003AEE3EEC42EA46E872E676E47AE27EE064
:105430000011B707055083C7070193F7F70F918B4A
:105440008DC383A741818297B707055083C70701A2
:1054500013F7F70FB70705506D9B1377F70F2388E6
:10546000E7000100FA40EA425A43CA433A442A4557
:105470009A450A46F6566657D6574658B658265E97
:10548000965E065FF64F3660A660166186617272A0
:10549000E2725273C2733275A275127682767267A7
:1054A000E2675268C268326EA26E126F826F0D613F
:1054B00073002030357106CF16CD1ACB1EC922C716
:1054C0002AC52EC332C1B6DEBADCBEDAC2D8C6D611
:1054D000F2D4F6D2FAD0FECE82E686E48AE28EE0FC
:1054E00012FE16FC1AFA1EF82AF62EF432F236F0E4
:1054F0003AEE3EEC42EA46E872E676E47AE27EE094
:1055000000110545EF00F06B2A8785476315F7000A
:105510000545EF0070700100FA40EA425A43CA4361
:105520003A442A459A450A46F6566657D65746588B
:10553000B658265E965E065FF64F3660A660166128
:1055400086617272E2725273C2733275A2751276FC
:1055500082767267E2675268C268326EA26E126F1C
:10556000826F0D6173002030357106CF16CD1ACBD6
:105570001EC922C72AC52EC332C1B6DEBADCBEDAC6
:10558000C2D8C6D6F2D4F6D2FAD0FECE82E686E4EF
:105590008AE28EE012FE16FC1AFA1EF82AF62EF4A3
:1055A00032F236F03AEE3EEC42EA46E872E676E453
:1055B0007AE27EE000110945EF00B0602A87854756
:1055C0006315F7000945EF0030650100FA40EA4233
:1055D0005A43CA433A442A459A450A46F6566657FC
:1055E000D6574658B658265E965E065FF64F36602A
:1055F000A660166186617272E2725273C27332756E
:10560000A275127682767267E2675268C268326E5D
:10561000A26E126F826F0D6173002030357106CF5C
:1056200016CD1ACB1EC922C72AC52EC332C1B6DE7B
:10563000BADCBEDAC2D8C6D6F2D4F6D2FAD0FECEE2
:1056400082E686E48AE28EE012FE16FC1AFA1EF862
:105650002AF62EF432F236F03AEE3EEC42EA46E812
:1056600072E676E47AE27EE000111145EF007055B3
:105670002A8785476315F7001145EF00F0590100AF
:10568000FA40EA425A43CA433A442A459A450A46EE
:10569000F6566657D6574658B658265E965E065F4B
:1056A000F64F3660A660166186617272E2725273BE
:1056B000C2733275A275127682767267E26752689B
:1056C000C268326EA26E126F826F0D61730020305D
:1056D000357106CF16CD1ACB1EC922C72AC52EC3D7
:1056E00032C1B6DEBADCBEDAC2D8C6D6F2D4F6D241
:1056F000FAD0FECE82E686E48AE28EE012FE16FC46
:105700001AFA1EF82AF62EF432F236F03AEE3EEC91
:1057100042EA46E872E676E47AE27EE0001121454C
:10572000EF00304A2A8785476315F7002145EF00CF
:10573000B04E0100FA40EA425A43CA433A442A456D
:105740009A450A46F6566657D6574658B658265EC4
:10575000965E065FF64F3660A660166186617272CD
:10576000E2725273C2733275A275127682767267D4
:10577000E2675268C268326EA26E126F826F0D616C
:1057800073002030357106CF16CD1ACB1EC922C743
:105790002AC52EC332C1B6DEBADCBEDAC2D8C6D63E
:1057A000F2D4F6D2FAD0FECE82E686E48AE28EE029
:1057B00012FE16FC1AFA1EF82AF62EF432F236F011
:1057C0003AEE3EEC42EA46E872E676E47AE27EE0C1
:1057D00000114145EF00F03E2A8785476315F70029
:1057E0004145EF0070430100FA40EA425A43CA4380
:1057F0003A442A459A450A46F6566657D6574658B9
:10580000B658265E965E065FF64F3660A660166155
:1058100086617272E2725273C2733275A275127629
:1058200082767267E2675268C268326EA26E126F49
:10583000826F0D6173002030357106CF16CD1ACB03
:105840001EC922C72AC52EC332C1B6DEBADCBEDAF3
:10585000C2D8C6D6F2D4F6D2FAD0FECE82E686E41C
:105860008AE28EE012FE16FC1AFA1EF82AF62EF4D0
:1058700032F236F03AEE3EEC42EA46E872E676E480
:105880007AE27EE0001113050002EF0090332A87D0
:1058900085476316F70013050002EF00F037130584
:1058A0000004EF0010322A8785476316F7001305BE
:1058B0000004EF00703613050008EF0090302A87CF
:1058C00085476316F70013050008EF00F034130551
:1058D0000010EF00102F2A8785476316F700130585
:1058E0000010EF00703313050020EF00902D2A8781
:1058F00085476316F70013050020EF00F031010023
:10590000FA40EA425A43CA433A442A459A450A466B
:10591000F6566657D6574658B658265E965E065FC8
:10592000F64F3660A660166186617272E27252733B
:10593000C2733275A275127682767267E267526818
:10594000C268326EA26E126F826F0D6173002030DA
:10595000357106CF16CD1ACB1EC922C72AC52EC354
:1059600032C1B6DEBADCBEDAC2D8C6D6F2D4F6D2BE
:10597000FAD0FECE82E686E48AE28EE012FE16FCC3
:105980001AFA1EF82AF62EF432F236F03AEE3EEC0F
:1059900042EA46E872E676E47AE27EE00011130518
:1059A0000040EF0010222A8785476316F700130591
:1059B0000040EF007026856713850780EF00702098
:1059C0002A8785476317F700856713850780EF00EF
:1059D000B0240565EF00F01E2A8785476315F700A0
:1059E0000565EF0070230965EF00B01D2A87854724
:1059F0006318F70083A7C18182970965EF00D02162
:105A00001165EF00101C2A8785476317F700EFC068
:105A10004FC21165EF0050202165EF00901A2A87D0
:105A200085476317F700EFC06FB12165EF00D01E07
:105A30000100FA40EA425A43CA433A442A459A4589
:105A40000A46F6566657D6574658B658265E965EAC
:105A5000065FF64F3660A660166186617272E2726A
:105A60005273C2733275A275127682767267E267DC
:105A70005268C268326EA26E126F826F0D6173003F
:105A80002030357106CF16CD1ACB1EC922C72AC5C4
:105A90002EC332C1B6DEBADCBEDAC2D8C6D6F2D464
:105AA000F6D2FAD0FECE82E686E48AE28EE012FEDC
:105AB00016FC1AFA1EF82AF62EF432F236F03AEEF6
:105AC0003EEC42EA46E872E676E47AE27EE00011D5
:105AD0008545B7370140138507C0EF20C006AA8768
